:100000000C9417010C943F010C943F010C943F0198
:100010000C943F010C943F010C943F010C943F0160
:100020000C943F010C94F8110C94F20B0C94640C9A
:100030000C943F010C943F010C943F010C943F0140
:100040000C943F010C94CE140C943F010C943F018E
:100050000C943F010C943F010C943F010C94AE11A1
:100060000C943F010C94C80E0C94A20E0C943F010A
:100070000C943F010C943F010C943F010C943F0100
:100080000C943F010C943F010C943F010C943F01F0
:100090000C9420130C943F010C943F010C943F01ED
:1000A0000C943F010C943F010C943F014203470321
:1000B0004C0356036003AA03AA03AA036A0374034A
:1000C0007E0388039503AA039D03A004C50491043D
:1000D000DE04FF04310526053105310531055805DB
:1000E000AF042E09440996084409ED084409740830
:1000F0001C0844094409440944094409E806440920
:10010000C50744096008E810EB10DA10DE10E410AF
:100110000C110C110C11EF10F310F710FD10011160
:100120000C11071100000000250028002B002E00F4
:100130003100000000002300260029002C002F00C1
:10014000040404040403040502020202040302027C
:10015000020206060606060604040202020404045D
:1001600008020110408040102040804080080204B6
:10017000018040201002011080102040402000002B
:10018000000200090F0000030401000C0000000041
:1001900000000000000000000000000000080B004C
:1001A000020202010009040000010202000005240D
:1001B00000100105240101010424020605240600A3
:1001C000010705810310004009040100020A000034
:1001D00000070502024000000705830240000004FA
:1001E00003090412010002EF02014041233680009E
:1001F000010102030141726475696E6F204C4C432A
:100200000041726475696E6F204C656F6E61726437
:100210006F00070605040100080A0B0C0D09000019
:100220000000240027002A002D003000BC1C1124EF
:100230001FBECFEFDAE0DEBFCDBF12E0A0E0B1E03D
:10024000E6E2FFE302C005900D92AE31B107D9F7A7
:1002500025E0AEE1B2E001C01D92A23DB207E1F798
:1002600011E0C7E1D1E004C02197FE010E94561EB3
:10027000C631D107C9F70E947A170C94911F0C94CC
:100280000000A82FB0E0A054BD4F9C91292F30E072
:10029000F901EE0FFF1F2E0F3F1FF901E256FA4F33
:1002A000E081F0E09F01220F331FE20FF31FE758B8
:1002B000FA4F80818F7B80838091BE02981306C0A5
:1002C000992379F091509093BE020BC0882349F096
:1002D000E091BF02EF5FE093BF02F0E0E35EFD4F0D
:1002E00090838FEF8C9308958E3180F4E82FF0E0A7
:1002F000DF01AE5EBA4F9C91913041F4EE0FFF1FCB
:10030000E05DFA4F608371830C94230F0895CF93BF
:100310008C3080F54091B2025091B30221E030E080
:10032000672B81F4B90102C0660F771F8A95E2F747
:10033000CB0180959095842395239093B30280936D
:10034000B20218C0082E02C0220F331F0A94E2F72F
:10035000242B352B3093B3022093B2029091E30209
:10036000911108C0C82F0E944911BC018C2FCF9158
:100370000C948F15CF9108958F929F92AF92BF9258
:10038000CF92DF92EF92FF920F931F93CF93DF9361
:10039000843008F096C0982F990F990F990F58E064
:1003A000C52EC90E9EE19C1510F44EE1C42E8B01A2
:1003B000C82FCC0FCC0FCC0FDC2ED0E09924939417
:1003C0005B01BB24DC1410F54D2D50E0FA01EE5E0C
:1003D000FA4F20812230B8F4892D90E08A219B21A8
:1003E00088248394009709F4812C7A01EE0CFF1C79
:1003F000213009F056C0D929F701E05DFA4F882D68
:1004000090E091838083990CD394DCCFD0FF05C01A
:10041000602F61708C2F0E94230FD1FF06C0602FC8
:10042000627081E08C0F0E94230FD2FF06C0602F04
:10043000647082E08C0F0E94230FD3FF06C0602FF0
:10044000687083E08C0F0E94230FD4FF06C0602FDA
:10045000607184E08C0F0E94230FD5FF06C0602FCF
:10046000607285E08C0F0E94230FD6FF06C0602FBC
:10047000607486E08C0F0E94230FD7FF22C0602F8C
:10048000607887E08C0FDF91CF911F910F91FF90E3
:10049000EF90DF90CF90BF90AF909F908F900C9493
:1004A000230F892B09F4A8CFF701E05DFA4F808173
:1004B0009181019709F4A0CF62E08D2D0E940D116A
:1004C0009BCFDF91CF911F910F91FF90EF90DF9025
:1004D000CF90BF90AF909F908F9008958F929F92F2
:1004E000AF92BF92CF92DF92EF92FF920F931F9342
:1004F000CF93DF93EB018E3108F038C1082F10E065
:10050000F801EE5EFA4F9081933009F48CC094307C
:1005100009F02CC1F801E054FD4FE080F12C670197
:10052000CC0CDD1C603282E078070CF042C077FD15
:1005300005C0653B710524F4DB0104C0A0E001C0E7
:10054000A4EBB0E0F601EE0DFF1DE256FA4F8181FB
:1005500028E830E04901881A910887FD9394880CB7
:10056000991C880C991C092C000CAA08BB088281D4
:1005700028E532E0281B310987FD3395220F331F10
:10058000220F331FA901330F660B770B9A01AB01C2
:10059000281939094A095B090E94111E24EB30E031
:1005A00040E050E00E94E71D820E931EA41EB51E7F
:1005B00001C04B01F601EE0DFF1DE256FA4F2081FE
:1005C0002C3008F0CCC0318188E890E0831B910981
:1005D00037FD9395880F991F880F991F88169906E4
:1005E00084F0828148E552E0481B510987FD53950C
:1005F000440F551F440F551FC401481559050CF4ED
:10060000CA010297880F991F4FB7F89430E0F9019B
:10061000EE0FFF1F2E0F3F1FF901E758FA4F92838D
:1006200081834FBF9CC0F82E83E0081759F08BEFF1
:10063000800F823038F087EF800F833018F08DE024
:1006400008138DC061E08F2D0E940D11209711F4C9
:1006500060E004C0CF3FD10529F461E08F2D0E94F6
:10066000230F7DC0F801E258FE4FE4918E2F90E0F9
:10067000FC013197EF30F10508F06CC0EA5AFF4FEA
:100680000C94561E84B5806884BDC7BD68C084B50F
:10069000806284BDC8BD63C0809180008068809303
:1006A0008000D0938900C093880059C08091800059
:1006B000806280938000D0938B00C0938A004FC0EB
:1006C00080918000886080938000D0938D00C093DB
:1006D0008C0045C080919000806880939000D093FA
:1006E0009900C09398003BC08091900080628093F5
:1006F0009000D0939B00C0939A0031C080919000ED
:10070000886080939000D0939D00C0939C0027C088
:100710008091C00080688093C0008091C0008F7B72
:100720008093C000C093CF001AC08091C000806247
:100730008093C000C093D00012C08091C200886036
:100740008093C2008091C2008B7F8093C200C093CF
:10075000D20005C0C038D1050CF07FCF79CF000F93
:10076000111FF801E05DFA4FD183C083DF91CF9173
:100770001F910F91FF90EF90DF90CF90BF90AF90BF
:100780009F908F900895DB019091BE029C30A8F558
:100790003091BF02682F70E0332369F0E32FF0E05F
:1007A000E35EFD4F8081FB01E054FD4F80833150BB
:1007B0003093BF0207C0FB01E054FD4F90839F5F61
:1007C0009093BE02FB01E054FD4F808190E09C01BC
:1007D000220F331F820F931F1A161B0634F41416B0
:1007E00015061CF49A01AD0104C020E639E040E290
:1007F00052E082569A4F0C944E1482E591E00C948C
:100800004016AF92BF92CF92DF92EF92FF920F937A
:100810001F93CF93DF93C82ED12CE601C157DB4F36
:10082000FE01ED57FF4F90819F3709F441C17B01D5
:10083000182F963069F48091E202882349F06630DF
:10084000710509F431C11092E2028FEF8093080123
:100850001E3100F584E0E816F104E1F0F601E05401
:10086000FD4F80818C30B0F490E0FC01EE0FFF1F53
:100870008E0F9F1FFC01E256FA4F808190E0FC0131
:10088000EE0FFF1F8E0F9F1FFC01E758FA4F80816C
:1008900086FDF5C00EEE010F0C3060F461E070E0F3
:1008A00082E0E816F10411F060E070E0802F0E9411
:1008B000870102C01E3118F5E12FE695E695E69511
:1008C000212F2770F0E0E258FD4FE114F10421F0F0
:1008D0008BE0E816F10449F481E090E001C0880F54
:1008E0002A95EAF79081892B09C081E090E001C048
:1008F000880F2A95EAF78095908189238083560195
:10090000AA0CBB1CF501E05DFA4F118210828CE04D
:10091000E816F10408F0A5C0F701EB59FF4F0C945D
:10092000561E0C3008F0C4C060E0812F0E940D11EB
:10093000CD57DF4F88818F3709F4BAC082E08FC06E
:100940001E3108F0B5C060E0812F0E940D11CD5717
:10095000DF4F88818F3709F4ABC01882A9C01E31E0
:1009600008F0A6C062E0812F0E940D11CD57DF4F25
:1009700088818F3711F08BE08883F501E05DFA4FB5
:1009800081E090E09183808393C01E3108F090C095
:10099000FE01ED57FF4F8081833021F460E0812F0D
:1009A0000E94230F61E0812F0E940D11CD57DF4F70
:1009B00088818F3709F47CC081E051C0133059F031
:1009C0008BEF810F823038F087EF810F833018F082
:1009D0001D3009F06DC061E0812F0E940D1161E0B2
:1009E000812F0E940D1160E0812F0E94230FCD57AF
:1009F000DF4F88818F3709F45BC083E030C01E3140
:100A000008F056C0CD57DF4F88818F3711F084E052
:100A10008883F601E054FD4F80818F3FA1F190E083
:100A2000FC01EE0FFF1F8E0F9F1FFC01E256FA4FD5
:100A3000808190E0FC01EE0FFF1F8E0F9F1FFC01D5
:100A4000E758FA4F808186FD33C01DC01250123026
:100A500078F5CD57DF4F88818F3751F186E0888355
:100A600027C086E691E0DF91CF911F910F91FF9013
:100A7000EF90DF90CF90BF90AF900C944016812FF5
:100A80000E94410107CF4FEF5FEF6FEF7FEF812FA4
:100A9000DF91CF911F910F91FF90EF90DF90CF905A
:100AA000BF90AF900C94C3031E3108F4D7CEF2CEA2
:100AB000DF91CF911F910F91FF90EF90DF90CF903A
:100AC000BF90AF900895FF920F931F93CF93DF9342
:100AD00000D0CDB7DEB7082F10E0F801E258FD4F87
:100AE0009081F62EF92202521D4F411104C0F801E7
:100AF0009081F91611F12F2D30E03A832983A091CE
:100B0000CF04B091D0041097B1F0682F6F70606976
:100B1000ED91FC9111970190F081E02DCD010995A7
:100B200022E030E0AE014F5F5F4F62E070E08FEC9B
:100B300094E00E940212F801F0820F900F90DF9172
:100B4000CF911F910F91FF9008950F931F93CF9313
:100B5000DF93843008F071C0282F30E0F901EE57A0
:100B6000FD4F6083672B09F468C0082FF901E25834
:100B7000FD4F1081D22FDD0FDD0FDD0F10FF4DC0B7
:100B80008D2F0E94FA0E892B09F447C0C1E011FF96
:100B900007C081E08D0F0E94FA0E892B09F03FC03B
:100BA00012FF06C082E08D0F0E94FA0E892BC9F554
:100BB00013FF06C083E08D0F0E94FA0E892B99F572
:100BC00014FF06C084E08D0F0E94FA0E892B69F590
:100BD00015FF06C085E08D0F0E94FA0E892B39F5AE
:100BE000D83191F016FF06C086E08D0F0E94FA0EF4
:100BF000892BF9F4D73141F017FF06C087E08D0F3C
:100C00000E94FA0E892BB9F441E06C2F802FDF91FE
:100C1000CF911F910F910C946305C0E0B8CFC260D3
:100C2000BFCFC460C5CFC860CBCFC061D1CFC062D9
:100C3000D7CFC064DFCFC068E7CFDF91CF911F91DE
:100C40000F910895EF92FF920F931F93CF93DF932D
:100C5000D82F8B01C42FF22E6F3F8FEF7807F9F05A
:100C600081E080937E03D093A00310927F031092C3
:100C7000A1038DE695E00E9454108F2D0E948316EB
:100C800080916A0290916B028230910550F0880F3A
:100C9000991F880F991F05970197F1F702C000E08F
:100CA00010E080917D038111FCCF9C2FC13208F0B0
:100CB00090E281E080937D0380937C032FEF20936B
:100CC0007B0310927A03290F2093790380935803B2
:100CD000809158032D2F220F822B809358038091EF
:100CE0005703813061F41092570380915803809329
:100CF000BB008091BC0083FDF8CF85EC01C085EE80
:100D00008093BC0080917D038130E1F380917A0370
:100D1000891710F490917A03E9E5F3E0A4EEB2E0CC
:100D200080E0891721F021912D938F5FFACF1092E7
:100D3000050380930403EC2EF12C90E0E816F906ED
:100D40001CF487E791E005C08E159F0524F484E923
:100D500091E00E944016D0932A0200932B020AE2EF
:100D600012E0C8018A5292408E159F057CF40F5FF5
:100D70001F4F9091040380910503981739F08DE679
:100D800095E00E940B10F8018183EBCFCE5F6C2FB2
:100D900070E04AE252E087E7DF91CF911F910F9117
:100DA000FF90EF900C94F315EF92FF920F931F9327
:100DB000CF93DF9390E0FC01E956F109E231F105B0
:100DC00008F062C2EA01162FEF58FF4F0C94561E2E
:100DD0002981922F987125FF03C080EB91E059C0C3
:100DE000888131E026FB222720F92327983061F102
:100DF00060F4911149C230937E038093A003109256
:100E00007F031092A10302E006C09031E1F1983116
:100E100009F46EC039C2011778F4FE01E00FF11D2C
:100E200061816795662767958081680F8DE695E0FB
:100E30000E9454100E5FEFCF81E00E94831683E181
:100E400091E00197F1F720C24B816A81163069F475
:100E500070E030E8439F600D711D11244D8147956E
:100E6000442747959C81490F06C0479544274795DD
:100E7000460F6FEF7FEFDF91CF911F910F91FF90A2
:100E8000EF900C942206E0910801E73054F080EDD9
:100E900091E0DF91CF911F910F91FF90EF900C9413
:100EA00040169B813A81663071F4632F70E0F0E860
:100EB0009F9F600D711D11249D819795992797958E
:100EC0004C81940F06C0979599279795930F6FEFD4
:100ED0007FEFEF5FE093080135E0E302F0011124BA
:100EE000E657FD4F80837283618393832483CCC153
:100EF0002091080112163CF490E0622F022E000CA3
:100F0000770B35E00FC08FEF80930801BDC1349F90
:100F1000F001359FF00D1124E657FD4F40818417F5
:100F200039F09F5F492F50E06417750784F790E010
:100F300085E022C09830F8F4FA0131968E9FD001F6
:100F40008F9FB00D1124A657BD4F3C91849FF00197
:100F5000859FF00D1124E657FD4F308311964D917A
:100F60005C9112975283418313963C91139733837C
:100F700014963C9134839F5F492F50E064177507A6
:100F8000CCF62150209308017FC1623070F0298196
:100F9000888190E0E0E82E9F800D911D112400973C
:100FA00021F090936B0280936A028091E20281119A
:100FB0006BC1C0E08EEF8C0F823028F466E070E0E9
:100FC0008C2F0E940104CF5FCE31A1F781E0809386
:100FD000E202109205031092040310927F03109214
:100FE000A10310927D0380937C031092570361E06C
:100FF00082E00E94230F61E083E00E94230F809132
:10100000B9008E7F8093B9008091B9008D7F809365
:10101000B90088E48093B80085E48093BC0089EF30
:101020009FE090930703809306038AEF9FE09093DD
:1010300009038093080328C1653008F425C118818D
:101040001E3108F021C10981EA80FB80CC81E12FAB
:10105000F0E0E054FD4F80818C30B0F490E0FC0172
:10106000EE0FFF1F8E0F9F1FFC01E256FA4F80818B
:1010700090E0FC01EE0FFF1F8E0F9F1FFC01E75851
:10108000FA4F808186FDFCC04F2D50E0F0E8CF9FE5
:10109000400D511D1124602F70E020E8E29E600D8C
:1010A000711D1124812F0E94C30364E070E0812F21
:1010B000DF91CF911F910F91FF90EF900C9401045D
:1010C000623008F4E1C02981888190E030E8239FF4
:1010D000800D911D1124009711F481E090E0909310
:1010E0000A0180930901D0C0623008F4CDC0698143
:1010F00070E0123091F08A81E0E88E9FC0011124E7
:10110000682B792B133049F08B8190E090E4899F14
:10111000902D88271124682B792B8881DF91CF911E
:101120001F910F91FF90EF900C946E0280EF0E9440
:1011300076168CE60E947616C0E080E00E94761655
:1011400081E00E9476168BE00E94761681E00E9474
:10115000761681E00E94761681E00E9476168EEE69
:101160008C0F8C3038F482E00E9476168AE00E9460
:10117000761609C0C33039F483E00E94761688E001
:101180000E9476160AC08BEF8C0F8230A8F387EF8F
:101190008C0F833088F3CD3079F384E00E9476168B
:1011A0008EE00E9476168EEF8C0F823030F486E04F
:1011B0000E94761681E00E9476168FE70E947616CE
:1011C000CF5FCE3109F0B9CF87EFDF91CF911F917B
:1011D0000F91FF90EF900C947616662309F454C09B
:1011E000C88180EF0E9476168EE60E9476168C2FBC
:1011F0000E947616CE3140F7D0E0FE01EE5EFA4F47
:1012000080810E947616CC0FDD1F8E01005D1A4F83
:10121000F80180818F770E947616F8018081918194
:101220009C012078232B39F0880F892F881F990B78
:101230008F770E947616C05DDA4F888199819C0174
:101240002227307C232B09F4BFCF990F880B990FED
:10125000982F881F8F770E947616B6CF80EF0E9456
:1012600076168AE60E947616CEEECC3010F48C2FDD
:1012700001C08FE70E947616CF5FCC30B1F7A4CFC4
:10128000812F0E94410100CFDF91CF911F910F91DB
:10129000FF90EF9008954091BA025091BB022091C7
:1012A000B8023091B90242175307B4F49091E800A4
:1012B0009570E1F39091E80092FD19C08093F100E0
:1012C0008091BA029091BB0201968F739927892B66
:1012D00019F48EEF8093E8008091BA029091BB02DE
:1012E00001969093BB028093BA0281E0089580E05A
:1012F0000895DF92EF92FF920F931F93CF93DF93A6
:10130000D82E8A017B01E40EF51EEB01CE15DF0518
:1013100071F0D7FE03C0FE01849101C088810E9454
:101320004B0921968111F2CF8FEF9FEF01C0C801C9
:10133000DF91CF911F910F91FF90EF90DF90089573
:10134000615030F02091F100FC0120830196F8CF2C
:10135000289884E6809355030895CF92DF92EF9208
:10136000FF920F931F93CF93DF936C017A018B0150
:10137000C0E0D0E0CE15DF0581F0D8016D918D0180
:10138000D601ED91FC910190F081E02DC601099507
:10139000892B11F02196EECF7E01C701DF91CF910D
:1013A0001F910F91FF90EF90DF90CF900895FC0177
:1013B000538D448D252F30E0842F90E0821B930BBA
:1013C000541710F0CF96089501970895FC01918D60
:1013D000828D981761F0828DDF01A80FB11D5D9697
:1013E0008C91928D9F5F9F73928F90E008958FEF05
:1013F0009FEF0895FC01918D828D981731F0828DB9
:10140000E80FF11D858D90E008958FEF9FEF08950F
:10141000FC01918D228D892F90E0805C9F4F821B73
:1014200091098F739927089582EA93E00E94080A30
:1014300021E0892B09F420E0822F0895FC01848D9E
:10144000DF01A80FB11DA35ABF4F2C91848D90E0EE
:1014500001968F739927848FA689B7892C93A089C9
:10146000B1898C9182748C93938D848D981306C06E
:101470000288F389E02D80818F7D80830895EF922B
:10148000FF920F931F93CF93DF93EC0181E0888F3E
:101490009B8D8C8D981305C0E889F989808185FD25
:1014A00026C0F62E0B8D10E00F5F1F4F0F73112714
:1014B000E02E8C8DE8120CC00FB607FCFACFE8893D
:1014C000F989808185FFF5CFCE010E941E0AF1CFF8
:1014D0008B8DFE01E80FF11DE35AFF4FF0829FB79D
:1014E000F8940B8FEA89FB898081806209C09FB7DD
:1014F000F894EE89FF896083E889F9898081827494
:1015000080839FBF81E090E0DF91CF911F910F9189
:10151000FF90EF900895CF93DF93EC01888D88239F
:10152000C9F0EA89FB89808185FD05C0A889B98950
:101530008C9186FD0FC00FB607FCF5CF808185FF2B
:10154000F2CFA889B9898C9185FFEDCFCE010E9499
:101550001E0AE7CFDF91CF91089580E090E0892BBC
:1015600029F00E94140A81110C9400000895CF9371
:10157000DF931F92CDB7DEB76983DC01ED91FC915B
:101580000280F381E02D41E050E0BE016F5F7F4FAC
:1015900009950F90DF91CF91089583E08093E90042
:1015A0008091F200882319F08AE38093E80008957F
:1015B000FC018485958597FD0BC09FB7F89482E068
:1015C0008093E9008091F2009FBF90E0019608951A
:1015D0009FB7F89482E08093E9008091F2009FBF6A
:1015E00090E008950E947D1F0F931F93CF93DF9388
:1015F0001F92CDB7DEB782E0898342E450E06DE907
:1016000071E080E80E9479090E946617DC01129659
:101610000D911C9113970115110589F0D801ED91D9
:10162000FC910280F381E02DBE016F5F7F4FC80106
:10163000099597FD04C0F80100851185ECCF8981DB
:101640000F90DF91CF911F910F9108958F929F92EC
:10165000AF92BF92CF92DF92EF92FF920F931F93C0
:10166000CF93DF936C017B018A018091070188236E
:1016700009F45CC080915603882309F457C0809117
:101680006C0280FF05C08091E00082608093E000E2
:10169000E801B12C8AEFA82E93E0892E2AE3922E3E
:1016A000209711F4BB20D9F10E94551781110AC06F
:1016B000AA94AA20D9F161E070E080E090E00E9455
:1016C0007411EECF282F30E0C217D3070CF48C2F03
:1016D0009FB7F8948092E9002091E80025FF1DC093
:1016E000282F30E0C21BD30BF701815020F041912D
:1016F0004093F100FACFE20EF31EBB2019F0909256
:10170000E8000AC08091E80085FD07C09092E800DB
:10171000BB24B394209709F0B12C9FBFC1CF5D9833
:1017200084E68093BD021016110644F081E090E03B
:10173000F6019383828380E090E001C0C801DF91CD
:10174000CF911F910F91FF90EF90DF90CF90BF90BE
:10175000AF909F908F9008950E94551790E0089544
:101760000F931F93CF93DF931F92CDB7DEB78C01FA
:10177000FC018485958597FF0EC0CE0101960E94DD
:101780002717019719F4898190E002C08FEF9FEF2E
:10179000F80195878487F801848595850F90DF91FE
:1017A000CF911F910F910895CF93DF931F92CDB7E3
:1017B000DEB7FC018485958597FD05C02FEF3FEFCF
:1017C000358724870BC0CE0101960E942717019709
:1017D00019F4898190E002C08FEF9FEF0F90DF91A5
:1017E000CF9108951F920F920FB60F9211248F93ED
:1017F0009F938091E1009091E100937F9093E100AD
:1018000083FF0FC01092E90091E09093EB001092DB
:10181000EC0092E39093ED001092560398E09093C1
:10182000F00082FF20C093E09093E9009091F200D5
:10183000992319F09AE39093E8009091BD029923BF
:1018400039F09091BD0291509093BD02992389F196
:1018500090915503992339F09091550391509093AD
:101860005503992341F184FF10C08091E2008E7EE0
:1018700081608093E2008091E1008F7E8093E1009F
:1018800080916C028E7E806111C080FF16C08091B5
:10189000E2008E7E80618093E2008091E1008E7E86
:1018A0008093E10080916C028E7E816080936C0257
:1018B00004C05D9ACDCF289AD6CF9F918F910F907B
:1018C0000FBE0F901F9018951F920F920FB60F9298
:1018D0001124CF92DF92EF92FF920F931F932F93D9
:1018E0003F934F935F936F937F938F939F93AF93A8
:1018F000BF93EF93FF93CF93DF93CDB7DEB76C9792
:10190000DEBFCDBF1092E9008091E80083FFFBC1EC
:1019100068E0CE0145960E94A00982EF8093E8001E
:101920008D8987FF05C09091E80090FFFCCF03C030
:101930009EEF9093E800982F907609F0C6C09E899C
:101940004F89588D2F89F88C91110CC0803829F45B
:1019500080916D028093F10002C01092F10010920C
:10196000F10045C1913051F4811141C1413051051F
:1019700009F03DC180916D028D7F0BC0933061F401
:10198000811135C14130510509F031C180916D029D
:10199000826080936D022BC1953049F48091E800FC
:1019A00080FFFCCF822F80688093E30020C19630B7
:1019B00009F05EC00B8D1C8D22E01092E9001092A0
:1019C000BB021092BA02F21232C01092B902109207
:1019D000B8020E94F40A99E0BE016F5F7F4FDB01FD
:1019E000E92F1D92EA95E9F79983FA8291E09E83A7
:1019F00090EA98879AEF99872091BA023091BB02BA
:101A0000275F3F4F3C832B838D831092E900109218
:101A1000BB021092BA021093B9020093B80249E0D7
:101A200050E080E00E9479090E94F40AE0C010931F
:101A3000B9020093B8020E946617DC0112960D915C
:101A40001C9113970115110509F4BBC0D801ED9144
:101A5000FC910480F581E02DBE016B5E7F4FC801D3
:101A60000995009709F0C7C0F80100851185EACFF4
:101A7000973009F445C1983021F481E08093F1005A
:101A8000B6C0993009F0B3C0837009F039C1E6E1FE
:101A9000F1E081E031E096E32081211109C08EE779
:101AA0008093EA001092EA008F89809356039FC0CA
:101AB0008093E9003093EB0021912093EC00909308
:101AC000ED008F5F873041F7EACF8B8D9C8D1092B0
:101AD000E9001092BB021092BA029093B90280936F
:101AE000B802898D811153C08E899D89913A49F43C
:101AF000813209F005C147E050E060E071E080E02C
:101B0000BBC0913209F0FCC0833269F48F89988D93
:101B1000A0E0B0E080930B0190930C01A0930D0125
:101B2000B0930E0164C0803269F48091E80082FFB6
:101B3000FCCF67E080E091E00E94A0098BEF8093EA
:101B4000E80055C0823209F052C08F8980930701A6
:101B5000EEEFFFE7859194918B3F9C4D19F0E0E00B
:101B6000F8E002C0EEEFFAE08091000190910101EF
:101B7000A0910201B0910301803B9440A105B10501
:101B800009F09EC08091070180FF79C099C00E9432
:101B90006617FC01028113810115110509F4B0C01B
:101BA000D801ED91FC910190F081E02DBE016B5EBA
:101BB0007F4FC801099581111AC0F8010085118570
:101BC000EBCFF1E0FF1609F44EC0F3E0FF1298C02E
:101BD0008F89882309F44AC0823089F440E860E1A3
:101BE00081E092E00E94871C882309F489C08EEF6F
:101BF0008093E80088C018161906CCF381C08130A4
:101C000029F440E86BE085EF91E0ECCF833009F0F8
:101C100077C00E946617DC011296ED90FC90139736
:101C20008E010F5F1F4F6801E114F10479F0D701B5
:101C3000ED91FC910680F781E02DB801C70109956F
:101C4000080F111DF701E084F184EECFD8011C923A
:101C5000F60101900020E9F73197BF016C197D0969
:101C600040E0C601BFCF63EE71E002C06FED71E0EE
:101C7000FB01449150E080E80E947909B8CFEE3F23
:101C80002AE0F20751F0808191818737A7E79A0710
:101C900021F09093FF0A8093FE0A87E797E79183EC
:101CA0008083809160008093BC029BE088E10FB646
:101CB000F894A895809360000FBE9093600097CF32
:101CC000808191818737974709F091CFA8958091BE
:101CD00060008861809360008091BC028093600006
:101CE000EE3FBAE0FB0739F08091FE0A9091FF0ABF
:101CF000918380837CCF1092FF0A1092FE0A77CFE7
:101D000081E28093EB006C960FB6F894DEBF0FBEB5
:101D1000CDBFDF91CF91FF91EF91BF91AF919F9197
:101D20008F917F916F915F914F913F912F911F9173
:101D30000F91FF90EF90DF90CF900F900FBE0F901C
:101D40001F9018951F920F920FB60F9211242F9388
:101D50003F934F935F936F937F938F939F93AF9333
:101D6000BF93EF93FF9382EA93E00E941E0AFF91D4
:101D7000EF91BF91AF919F918F917F916F915F9103
:101D80004F913F912F910F900FBE0F901F9018957C
:101D90001F920F920FB60F9211242F938F939F9340
:101DA000EF93FF93E091B203F091B3038081E09150
:101DB000B803F091B90382FD12C090818091BB03FA
:101DC0008F5F8F732091BC03821751F0E091BB03AA
:101DD000F0E0EE55FC4F958F8093BB0301C08081EE
:101DE000FF91EF919F918F912F910F900FBE0F90C8
:101DF0001F901895CF93DF93282F30E0F901E25818
:101E0000FE4F8491F901E15AFE4FD491F901E05C53
:101E1000FE4FC491CC2391F081110E94D010EC2F81
:101E2000F0E0EE0FFF1FEE5CFE4FA591B491EC9138
:101E3000ED2381E090E021F480E002C080E090E0BA
:101E4000DF91CF9108951F93CF93DF93282F30E038
:101E5000F901E258FE4F8491F901E15AFE4FD49105
:101E6000F901E05CFE4FC491CC23C1F0162F811123
:101E70000E94D010EC2FF0E0EE0FFF1FEC5DFE4F44
:101E8000A591B4919FB7F894111104C08C91D0958D
:101E9000D82302C0EC91DE2BDC939FBFDF91CF9162
:101EA0001F9108953FB7F894809151039091520388
:101EB000A0915303B091540326B5A89B05C02F3FB2
:101EC00019F00196A11DB11D3FBFBA2FA92F982F60
:101ED0008827820F911DA11DB11DBC01CD0142E0DB
:101EE000660F771F881F991F4A95D1F70895E091D3
:101EF0007C02F0917D02309709F009940895862FB5
:101F0000642FE0917A02F0917B02309711F0A901E1
:101F1000099408950895862FE0917202F09173025A
:101F2000309711F0BA0109940895862FE091740258
:101F3000F0917502309711F0BA0109940895862F37
:101F4000E0916E02F0916F02309711F0BA0109949E
:101F50000895862FE0917002F0917102309711F090
:101F6000BA0109940895862FE0917602F0917702E4
:101F7000309711F0BA0109940895862FE091780204
:101F8000F0917902309711F0BA010994089585ED26
:101F90008093BC008091BC0084FDFCCF10927D0337
:101FA000089540912B03262F30E0240F311D21325C
:101FB0003105DCF420917D032430C9F4FC0180E07C
:101FC00090E0861758F430912B032191DC01A55F36
:101FD000BC4FA30FB11D2C930196F3CF80912B031F
:101FE000680F60932B0380E0089581E0089582E0FC
:101FF0000895089508950895E091050380910403DC
:10200000E81730F4F0E0EC51FD4F808190E0089546
:102010008FEF9FEF08959091050380910403981727
:1020200050F4E92FF0E0EC51FD4F208130E09F5F4C
:102030009093050302C02FEF3FEFC90108958091EF
:10204000040390E020910503821B91090895CF922B
:10205000DF92EF92FF920F931F93CF93DF937C0158
:10206000CB018A0120917E03222389F0EB016B01D1
:10207000C40ED51ECC15DD0569F06991D701ED912F
:10208000FC910190F081E02DC7010995F3CF642FF9
:102090000E94D10FC801DF91CF911F910F91FF9046
:1020A000EF90DF90CF900895CF93DF931F92CDB73D
:1020B000DEB7698320917E032223D1F02091A10312
:1020C000203240F021E030E0FC013383228380E0C5
:1020D00090E015C080917F03E82FF0E0E058FC4FBE
:1020E000998190838F5F80937F038093A10305C0C4
:1020F00061E0CE0101960E94D10F81E090E00F9047
:10210000DF91CF910895089580E090E008950097C1
:1021100021F0805C9F4F0C944C1608950F931F93F1
:10212000CF93DF9381E08093E3028091E2028823E2
:1021300029F01092E2028FEF80930801E2E8F2E0CA
:10214000CEE7D2E0AEEDB2E0119219921D9282E09C
:10215000E638F807C9F700EC12E0C0E0DFEF8EEEDA
:102160008C0F8C3018F462E070E002C061E070E027
:102170008C2F0E940104F801D1938F01CF5FCE31E3
:1021800071F71092B3021092B2021092BF02109235
:10219000BE021092E302DF91CF911F910F9108953B
:1021A00090E0FC013197EF30F105B0F5ED57FF4FAE
:1021B0000C94561E809180008F7703C08091800020
:1021C0008F7D80938000089580918000877FF9CF74
:1021D00084B58F7702C084B58F7D84BD08958091CA
:1021E00090008F7707C0809190008F7D03C0809111
:1021F0009000877F8093900008958091C0008F7732
:1022000003C08091C0008F7D8093C00008958091AD
:10221000C200877F8093C2000895CF93DF9390E040
:10222000FC01E15AFE4F2491FC01E05CFE4F8491D9
:10223000882361F190E0880F991FFC01E25EFD4F59
:10224000C591D491FC01EC5DFE4FA591B491611153
:1022500009C09FB7F8948881209582238883EC91E8
:102260002E230BC0623061F49FB7F8948881322F1F
:10227000309583238883EC912E2B2C939FBF06C02F
:102280008FB7F894E8812E2B28838FBFDF91CF91F1
:102290000895823108F08251E82FF0E0EE5EFD4FA4
:1022A000E49180917B00E3FB222720F930E095E068
:1022B000220F331F9A95E1F78F7D282B20937B0007
:1022C000E770E064E0937C0080917A008064809302
:1022D0007A0080917A0086FDFCCF80917800209171
:1022E000790090E0922B08958F929F92AF92BF92C7
:1022F000CF92DF92EF92FF926B017C010E94520F0E
:102300004B015C01C114D104E104F104F1F00E941D
:10231000520FDC01CB0188199909AA09BB09883E33
:102320009340A105B10570F321E0C21AD108E1087C
:10233000F10888EE880E83E0981EA11CB11CC11420
:10234000D104E104F10419F7DDCFFF90EF90DF90A5
:10235000CF90BF90AF909F908F9008951F920F9253
:102360000FB60F9211242F933F938F939F93AF93A8
:10237000BF938091860290918702A0918802B091CC
:1023800089023091500323E0230F2D3720F401966A
:10239000A11DB11D05C026E8230F0296A11DB11D88
:1023A000209350038093860290938702A093880223
:1023B000B09389028091510390915203A0915303ED
:1023C000B09154030196A11DB11D809351039093C8
:1023D0005203A0935303B0935403BF91AF919F91C5
:1023E0008F913F912F910F900FBE0F901F901895D6
:1023F0001F920F920FB60F9211240F900FBE0F90E5
:102400001F9018953F924F925F926F927F928F929A
:102410009F92AF92BF92CF92DF92EF92FF920F9373
:102420001F93CF93DF935C016901DA013C90232B6A
:1024300019F4CC24CA94DC2C7A012A01460E571ECA
:10244000C0E0D0E000E010E087E0682E712CE414DA
:10245000F50409F443C00C151D0508F067C04701D9
:10246000F50180819181D7016D917D010C2E01C014
:10247000660F0A94EAF763296F77DC01ED91FC910E
:102480000190F081E02D09950F5F1F4FF4016081ED
:1024900070E0C3018C1B9D0B02C0759567958A95F2
:1024A000E2F7362E2196C730D10588F2C016D10644
:1024B00099F0D5018D919C91632D6F77DC01ED91A1
:1024C000FC910190F081E02D09950F5F1F4F331CA7
:1024D0003324331C2797E7CF8601B9CF209731F1FA
:1024E0000C151D0518F5F5018081918161E070E002
:1024F00001C0660FCA95EAF761506321DC01ED91D6
:10250000FC910190F081E02DDF91CF911F910F910F
:10251000FF90EF90DF90CF90BF90AF909F908F9003
:102520007F906F905F904F903F900994DF91CF9193
:102530001F910F91FF90EF90DF90CF90BF90AF90E1
:102540009F908F907F906F905F904F903F900895F5
:10255000DF92EF92FF920F931F93CF93DF93FC01D3
:10256000E058FF4FD080DD2009F45DC0EC01C05C75
:10257000DF4FA881B981109709F455C0FC01EF57CE
:10258000FF4F00811181F801F180E080ED91FC9115
:1025900011970190F081E02D60EFCD0109958881C0
:1025A0009981DC01ED91FC910190F081E02D69E7CA
:1025B000099588819981DC01ED91FC910190F08170
:1025C000E02D6E2D099588819981DC01ED91FC91BA
:1025D0000190F081E02D6F2D09957801B2E0EB0EAE
:1025E000F11C0D0D111DE016F10661F020E030E048
:1025F000A70161E070E0CE010E940212EFEFEE1A37
:10260000FE0AF1CF88819981DC01ED91FC91019066
:10261000F081E02D67EFDF91CF911F910F91FF9037
:10262000EF90DF900994DF91CF911F910F91FF9070
:10263000EF90DF900895009711F00C94A812089580
:102640001F920F920FB60F9211242F933F934F9327
:102650005F936F937F938F939F93AF93BF93EF930A
:10266000FF938091B900887F803609F49CC068F59B
:10267000883209F45BC090F4803109F454C038F416
:10268000882309F4F6C0883009F44DC0F6C08831BB
:1026900009F44CC0803209F45DC0EFC0803409F405
:1026A00068C048F4803309F455C0883309F0E5C0A8
:1026B00080937B03D8C0803509F44FC0883509F476
:1026C0005DC0883409F0D9C0D6C0883909F4C7C0C4
:1026D000A8F4883709F467C038F4883609F463C071
:1026E000803709F460C0C9C0883809F4B8C080399F
:1026F00009F45FC0803809F0C0C05BC0803B09F4BA
:1027000086C038F4803A09F466C0883A09F47FC07C
:10271000B4C0803C09F4A7C0883C09F4A4C0883B3D
:1027200009F48AC0AAC08091580310C090917A031E
:1027300080917903981770F5E0917A0381E08E0F0C
:1027400080937A03F0E0E75AFC4F80818093BB00CE
:1027500085EC86C080937B038EC0E0917A0381E094
:102760008E0F80937A038091BB00F0E0E75AFC4F14
:10277000808390917A03809179036EC0E0917A030F
:1027800081E08E0F80937A038091BB00F0E0E75ADE
:10279000FC4F808380917C0381116DC081E0809328
:1027A000570384EA61C083E080937D0310924D0358
:1027B000CFCF80914D03803208F051C0E0914D039E
:1027C00081E08E0F80934D038091BB00F0E0E35DCC
:1027D000FC4F8083BDCF85EC8093BC0010927D03BD
:1027E00080914D03803230F4E0914D03F0E0E35DE1
:1027F000FC4F108260914D0370E0E0910803F0916E
:1028000009038DE293E0099510924D0336C084E0F0
:1028100080937D0310922C0310922B03E09106030A
:10282000F0910703099580912B03811105C081E088
:1028300080932B0310920B03E0912C0381E08E0F09
:1028400080932C03F0E0E55FFC4F80818093BB0018
:1028500090912C0380912B03981708F479CF85E889
:102860008093BC000AC085EC8093BC0010927D036D
:1028700004C010927B030E94C70FFF91EF91BF919C
:10288000AF919F918F917F916F915F914F913F9108
:102890002F910F900FBE0F901F901895DF92EF921F
:1028A000FF920F931F93CF93DF93EC01D62E7A0103
:1028B000890188818C3008F068C061E08D2D0E940C
:1028C0000D118881E82FF0E09F01220F331FE20FE6
:1028D000F31FE758FA4F9D2D9F732081207CD22E45
:1028E000D92AD08220E232E02E193F0937FF02C0F8
:1028F0002D5F3F4F3595279535952795298320E600
:1029000039E0201B310B37FF02C02D5F3F4F35955B
:102910002795359527952A836CE00E944A1E9CE0F6
:10292000899FB001112440E050E09B01240F351F26
:10293000F901EE0FFF1F2E0F3F1FF901E758FA4F65
:10294000908196FD16C04F5F5F4F4C30510569F77F
:1029500081110FC01092800082E08093810010925C
:10296000850010928400B19A80916F0082608093FC
:102970006F00E881F0E0CF01880F991FE80FF91F81
:10298000E758FA4F8081806480838881DF91CF91FE
:102990001F910F91FF90EF90DF9008951F920F927B
:1029A0000FB60F9211242F933F934F935F936F9322
:1029B0007F938F939F93AF93BF93EF93FF938091F8
:1029C0000A0387FF05C010928500109284001BC087
:1029D00020910A03022E000C330B80919D0590E09C
:1029E0002817390784F480910A03082E000C990BEC
:1029F000FC01EE0FFF1F8E0F9F1FFC01E758FA4FDF
:102A0000808186FD15C080910A038F5F80930A0341
:102A100020910A03022E000C330B80919D0590E05B
:102A200028173907C4F480910A038C3064F113C06D
:102A300080910A03082E000C990BFC01EE0FFF1F7A
:102A40008E0F9F1FFC01E758FA4F808160E08F7363
:102A50000E94230FD8CF8091840090918500049626
:102A600080349C4918F480E49CE905C0809184007E
:102A700090918500049690938900809388008FEF51
:102A800080930A033BC0209184003091850080919F
:102A90000A03082E000C990BFC01EE0FFF1F8E0F8E
:102AA0009F1FFC01E758FA4F81819281820F931F8B
:102AB000909389008093880080910A03082E000C6F
:102AC000990BFC01EE0FFF1F8E0F9F1FFC01E758B3
:102AD000FA4F808186FF12C080910A03082E000CF5
:102AE000990BFC01EE0FFF1F8E0F9F1FFC01E75893
:102AF000FA4F808161E08F730E94230FFF91EF9165
:102B0000BF91AF919F918F917F916F915F914F9105
:102B10003F912F910F900FBE0F901F9018951F930C
:102B2000CF93DF9300D0CDB7DEB7182F7A836983B8
:102B30008091CF049091D004009709F44EC0DC013D
:102B4000ED91FC911031A8F46115704490F4612F5F
:102B5000606E0190F081E02D099522E030E0AE0139
:102B60004F5F5F4F62E070E08FEC94E00E940212D2
:102B700034C00190F081E02D60EF09958091CF0481
:102B80009091D004DC01ED91FC910190F081E02D59
:102B90006FE609958091CF049091D004DC01ED910E
:102BA000FC910190F081E02D612F099522E030E049
:102BB000AE014F5F5F4F62E070E08FEC94E00E94E7
:102BC00002128091CF049091D004DC01ED91FC9130
:102BD0000190F081E02D67EF09950F900F90DF9144
:102BE000CF911F910895EF92FF920F931F93CF9370
:102BF000DF93C82F8091CF049091D0040097C9F142
:102C00007A018B01DC01ED91FC910190F081E02DC6
:102C100060EF09958091CF049091D004DC01ED9193
:102C2000FC910190F081E02D6C2F0995E7010E0DCC
:102C30001F1DC017D10759F020E030E0AE0161E060
:102C400070E08FEC94E00E9402122196F2CF809106
:102C5000CF049091D004DC01ED91FC910190F081C2
:102C6000E02D67EFDF91CF911F910F91FF90EF90D3
:102C70000994DF91CF911F910F91FF90EF900895EC
:102C8000FC0101900020E9F73197BF01681B790B27
:102C9000AC0181E70C94F315CF93DF93FC01A08185
:102CA000B181109701F1EC01ED91FC911197019028
:102CB000F081E02D69EFCD01099588819981DC01D2
:102CC000ED91FC910190F081E02D62E00995888101
:102CD0009981DC01ED91FC910190F081E02D65E09E
:102CE000DF91CF910994DF91CF910895A0910D05C7
:102CF000B0910E05ED91FC9111970190F081E02DBE
:102D0000682FCD010994282F3091A103313208F0AA
:102D10004AC080917D038111FCCF9091A00342E0D5
:102D200040937D0320937C032FEF20937B0310922D
:102D30007A0330937903E0E8F3E0A9E5B3E020E01B
:102D4000321721F041914D932F5FFACF1092580323
:102D500020915803990F922B909358039091570309
:102D6000913061F410925703909158039093BB00F7
:102D70009091BC0093FDF8CF95EC01C095EE909337
:102D8000BC0090917D039230E1F390917B039F3FD3
:102D900079F080917B03803241F080917B03803316
:102DA00031F084E005C081E003C082E001C083E02F
:102DB00010927F031092A10310927E0308951F9337
:102DC000CF93DF93182FEB018091D4049091D50419
:102DD00068177907A8F0E0910105F091020581E0FC
:102DE0003097C1F08093D1048091ED049091EE046E
:102DF00009958091D4049091D504C817D90748F457
:102E00008091D2049091D304C80FD91F188380E019
:102E100001C081E0DF91CF911F910895AC01FB01CA
:102E200080E090E09C01220F331F2417350770F4D7
:102E3000DB012C91208311963C91379533273795F0
:102E4000232B219301966E5F7F4FECCF0895209145
:102E50005603211103C08FEF9FEF08955FB7F894D9
:102E600022E02093E9002091F20030E012161306D0
:102E700014F421E030E0422FFC0184E6415038F0A8
:102E80002898809355039091F1009193F7CF2115E5
:102E9000310521F08091F200882319F05FBFC9014C
:102EA00008958BE68093E800F9CF2FB7F89483E07C
:102EB0008093E9009091E800892F807295FF04C00B
:102EC0009091F20080E4891B2FBF08958091C60580
:102ED00081110DC082E08093C20584E08093C30518
:102EE0001092C5051092C40581E08093C60582EC5E
:102EF00095E00895789484B5826084BD84B581603E
:102F000084BD85B5826085BD85B5816085BD8091B4
:102F10006E00816080936E0010928100809181002C
:102F20008260809381008091810081608093810024
:102F30008091800081608093800080919100826008
:102F400080939100809191008160809391008091A5
:102F500090008160809390008091C1008460809394
:102F6000C1008091C10082608093C1008091C10046
:102F700081608093C1008091C30081608093C30011
:102F80008091C00082608093C0008091C200816007
:102F90008093C20080917A00846080937A0080914F
:102FA0007A00826080937A0080917A0081608093B9
:102FB0007A0080917A00806880937A00109256039C
:102FC00010926D0210926C028091D7008160809304
:102FD000D70080EA8093D80089B5806189BD89B522
:102FE000826089BD09B400FEFDCF61E070E080E041
:102FF00090E00E9474118091D8008F7C8061809352
:10300000D8008091E000807F8093E0008091E10013
:103010008E7E8093E1008DE08093E200559A209AA5
:1030200085E180930F0580911005909111050E9414
:10303000F41EC0910F05D0E0CE0101960E945C1EE7
:103040009093110580931005FC01EC0FFD1F108279
:1030500022E0DC012C9325E011962C93AE01425026
:10306000510969E072E002960E94821F8EE692E0AA
:1030700090937902809378028CEB91E090937702A1
:103080008093760287E891E09093750280937402B2
:1030900085EA95E0909373028093720281E094E058
:1030A000909371028093700284E791E090936F0295
:1030B00080936E0284ED96E090937B0280937A0277
:1030C0008EE890E190937D0280937C028FEF9FEFDA
:1030D00090934C0480934B0480916C05811140C007
:1030E00061E08DE00E940D11C0E062ED70E080E0D3
:1030F00090E00E94741161E08DE00E94230F68E26D
:1031000070E080E090E00E94741160E08DE00E9429
:10311000230FCF5FC23049F76AEF70E080E090E0A4
:103120000E947411C0E062ED70E080E090E00E94C7
:10313000741161E08DE00E94230F68E270E080E08E
:1031400090E00E94741160E08DE00E94230FCF5F39
:10315000C53049F76DE770E080E090E00E9474119F
:103160008FE394E090930E0580930D059093D00427
:103170008093CF048FEC94E00E944C168FE894E08B
:103180000E94A812C09107016AE070E080E090E020
:103190000E947411CC23B1F30E948E10D5E0DD247F
:1031A000D39402E010E0EE24E394F12C80918202AB
:1031B000882309F448C0C0907E02C0FE6CC380E042
:1031C0000E94FA0E892B09F466C3C1E0C1FE06C055
:1031D00081E00E94FA0E892B09F05FC3C2FE06C08F
:1031E00082E00E94FA0E892B09F059C3C3FE06C083
:1031F00083E00E94FA0E892B09F053C3C4FE06C077
:1032000084E00E94FA0E892B09F04DC3C5FE06C06A
:1032100085E00E94FA0E892B09F047C3C6FE06C05E
:1032200086E00E94FA0E892B09F041C3C7FE06C052
:1032300087E00E94FA0E892B09F03BC340E06C2F17
:1032400080E00E94630580918302882309F448C0CE
:10325000C0907F02C0FE2FC388E00E94FA0E892B27
:1032600009F429C3C1E0C1FE06C089E00E94FA0E3C
:10327000892B09F022C3C2FE06C08AE00E94FA0E22
:10328000892B09F01CC3C3FE06C08BE00E94FA0E16
:10329000892B09F016C3C4FE06C08CE00E94FA0E0A
:1032A000892B09F010C3C5FE06C08DE00E94FA0EFE
:1032B000892B09F00AC3C6FE06C08EE00E94FA0EF2
:1032C000892B09F004C3C7FE06C08FE00E94FA0EE6
:1032D000892B09F0FEC240E06C2F81E00E9463055B
:1032E00080918402882309F448C0C0908002C0FE07
:1032F000F2C280E10E94FA0E892B09F4ECC2C1E00F
:10330000C1FE06C081E10E94FA0E892B09F0E5C2D8
:10331000C2FE06C082E10E94FA0E892B09F0DFC2CC
:10332000C3FE06C083E10E94FA0E892B09F0D9C2C0
:10333000C4FE06C084E10E94FA0E892B09F0D3C2B4
:10334000C5FE06C085E10E94FA0E892B09F0CDC2A8
:10335000C6FE06C086E10E94FA0E892B09F0C7C29C
:10336000C7FE06C087E10E94FA0E892B09F0C1C290
:1033700040E06C2F82E00E946305809185028823E3
:10338000C1F1C0908102C0FEB6C288E10E94FA0E6F
:10339000892B09F4B0C2C1E0C1FE06C089E10E94D8
:1033A000FA0E892B09F0A9C2C2FE06C08AE10E946A
:1033B000FA0E892B09F0A3C2C3FE06C08BE10E945E
:1033C000FA0E892B09F09DC2C4FE06C08CE10E9452
:1033D000FA0E892B09F097C2C5FE06C08DE10E9446
:1033E000FA0E892B09F091C240E06C2F83E00E9415
:1033F000630580910D0590910E05DC01ED91FC9126
:103400000084F185E02D0995892B09F4CEC18091C6
:103410000D0590910E05DC01ED91FC910284F38580
:10342000E02D09959C018F3FBFEF9B0711F3982F6B
:103430008091DA04882309F492C0973F09F07EC096
:103440001092DA04A091D204B091D3046C91613748
:10345000C1F1693709F05CC0E0910705F0910805FA
:10346000309739F28091DB049091DC048330910530
:1034700038F420E030E040E050E060E070E01BC055
:10348000BD016D5F7F4F03970E940E17BC016D5FFA
:103490007F4F80E00E94DF16E091D204F091D304C8
:1034A0009F012D5F3F4F428150E0618170E0E091CC
:1034B0000705F09108058091E9049091EA040995C7
:1034C00098CF8091030590910405892B09F491CF41
:1034D000BD016F5F7F4F8091DB049091DC04019709
:1034E0000E940E17BC016F5F7F4F80E00E94DF16C5
:1034F0006091D2047091D3046F5F7F4FE091030518
:10350000F09104058091EF049091F004099571CF3A
:10351000E0910505F0910605309709F46ACF9D0109
:103520002F5F3F4F4091DB045091DC044150510923
:103530008091F1049091F20409955BCF6091DB04D6
:103540007091DC04822F0E94DF168091DB04909141
:10355000DC0401969093DC048093DB044ACF6091F5
:10356000D8047091D9046115710509F4AFC027FD25
:10357000ADC0615071097093D9046093D804822F53
:103580000E94DF168091D8049091D904892B09F00C
:1035900030CF8091D604882309F42BCF803D09F4E5
:1035A0007FC030F4803939F1803C09F466C08BC0AB
:1035B000843FE1F1853F09F44DC0803E09F083C0AE
:1035C000E091F504F091F604309709F47CC0A091E5
:1035D000D204B091D3048C9111964C9150E090E8B4
:1035E000899F400D511D11246091D7048091DD0405
:1035F0009091DE0467C0E091F704F091F8043097F1
:1036000009F461C0A091D204B091D3048C911196B9
:103610004C9150E0A0E88A9F400D511D112460910B
:10362000D7048091DF049091E0044CC0E091FD0448
:10363000F091FE04309709F446C0A091D204B091F5
:10364000D3044C9150E011966C918091E5049091D7
:10365000E60438C0E091FF04F0910005309799F13D
:10366000A091D204B091D3044C9150E011966C918A
:103670008091E7049091E80425C0E091F904F0916D
:10368000FA04309701F1A091D204B091D3044C9187
:1036900050E06091D7048091E1049091E20412C05F
:1036A000E091FB04F091FC04309769F0A091D20402
:1036B000B091D3044C9150E06091D7048091E30421
:1036C0009091E40409951092D60493CE903F30F483
:1036D000822F8F708093D704922F907F903F79F143
:1036E00058F4903C29F118F49039E9F082CE903DDD
:1036F000F9F0903EC1F07DCE993F09F449C028F41D
:103700008CE0890F823078F074CE9F3F09F071CE43
:103710001092D9041092D8041092D6041092D704B3
:1037200080E090E013C01093D9040093D80404C043
:10373000F092D904E092D8049093D6045ACED09255
:10374000DA041092DC041092DB0453CE2091D404EE
:103750003091D5048217930748F4E091D204F09198
:10376000D304E80FF91F10820196F0CF1092DA040B
:103770001092DC041092DB04E0910B05F0910C0533
:10378000309709F436CE8091F3049091F4040BC085
:10379000E0910905F0910A05309709F42ACE80914D
:1037A000EB049091EC04099524CE8FB7F8944091E6
:1037B00086025091870260918802709189028FBFC2
:1037C0008090B4029090B502A090B602B090B7027B
:1037D0002091090130910A01C901A0E0B0E0481927
:1037E00059096A097B0984179507A607B70708F0E6
:1037F0004FC0880D991DAA1DBB1D8093B4029093E4
:10380000B502A093B602B093B70282E1A82E85E07C
:10381000B82ECEEECC30B8F4F5018081823099F428
:103820008091B2029091B3020C2E02C095958795BB
:103830000A94E2F780FF07C08C2F0E944911BC0157
:103840008C2F0E948F15CF5FFFEFAF1ABF0ACC30CD
:1038500009F78091080187FD1BC0C0E02C2F30E0E4
:1038600080910801082E000C990B8217930784F0B1
:10387000D29FF001D39FF00D1124E657FD4F6181D7
:1038800072812481438180810E942206CF5FE6CF2E
:103890000E94AD0A8BCCC0E099CCC2609FCCC460C2
:1038A000A5CCC860ABCCC061B1CCC062B7CCC064A1
:1038B000BDCCC068C3CCC0E0D6CCC260DCCCC46098
:1038C000E2CCC860E8CCC061EECCC062F4CCC0648D
:1038D000FACCC06800CDC0E013CDC26019CDC46081
:1038E0001FCDC86025CDC0612BCDC06231CDC06475
:1038F00037CDC0683DCDC0E04FCDC26055CDC4606E
:103900005BCDC86061CDC06167CDC0626DCDDF9217
:10391000EF92FF920F931F93CF93DF93D82EF92E40
:10392000E42E062F10E0C8010196880F0E944B0973
:1039300083E00E944B09CD2DDF2D0C0F1D1FC017FA
:10394000D10789F0E7FE03C0FE01849101C08881A0
:103950000E944B09F82E80E00E944B098F2121968E
:103960008111EDCF01C081E0DF91CF911F910F91C7
:10397000FF90EF90DF9008951092A5031092A4039A
:1039800088EE93E0A0E0B0E08093A6039093A703B5
:10399000A093A803B093A90320E231E03093A303DE
:1039A0002093A2032DEC30E03093AF032093AE03BD
:1039B0002CEC30E03093B1032093B00328EC30E0DE
:1039C0003093B3032093B20329EC30E03093B50376
:1039D0002093B4032AEC30E03093B7032093B6036E
:1039E0002EEC30E03093B9032093B8031092BB0360
:1039F0001092BC031092BD031092BE0310924204B9
:103A0000109241048093430490934404A09345048E
:103A1000B093460422E331E03093400420933F0406
:103A20002FEF3FEF30934C0420934B042FE834E00A
:103A30001092D0041092CF043093D3042093D20478
:103A400040E450E05093D5044093D4041092D6043F
:103A50001092D7041092D9041092D8041092DA046C
:103A60001092DC041092DB041092DE041092DD044C
:103A70001092E0041092DF041092E2041092E1042C
:103A80001092E4041092E3041092E6041092E5040C
:103A90001092E8041092E7041092EE041092ED04E4
:103AA0001092F0041092EF041092F2041092F104BC
:103AB0001092F4041092F304109202051092010582
:103AC0001092D10410920F0510921105109210055A
:103AD00010926C054DEB5FE05093F6044093F504B3
:103AE00043EB5FE05093F8044093F70445E95FE04F
:103AF0005093FA044093F9044BE85FE05093FC04C0
:103B00004093FB0449EA5FE05093FE044093FD04B8
:103B10004FE95FE0509300054093FF044AE85FE0FF
:103B200050930405409303054FE75FE0509306056B
:103B3000409305054BE153E1509308054093070579
:103B40003093EA042093E90447E850E150930A05D2
:103B5000409309053093EC042093EB0427E73FE002
:103B600030930C0520930B051092700510926F0591
:103B70008093710590937205A0937305B0937405BB
:103B800084E491E090936E0580936D0580919D058E
:103B9000AEE9B5E09FEF48EB5BE08C3078F48C93B6
:103BA000282F30E0F901EE0FFF1F2E0F3F1FF90104
:103BB000E758FA4F528341838F5F01C09C9313965D
:103BC00025E0A23CB20749F780939D050895052E94
:103BD00097FB1EF400940E94FE1D57FD07D00E9423
:103BE000191E07FC03D04EF40C94FE1D5095409511
:103BF000309521953F4F4F4F5F4F08959095809599
:103C0000709561957F4F8F4F9F4F08950E943B1E87
:103C1000A59F900DB49F900DA49F800D911D112420
:103C20000895B7FF0C94061E0E94061E821B930B7C
:103C30000895A1E21A2EAA1BBB1BFD010DC0AA1FED
:103C4000BB1FEE1FFF1FA217B307E407F50720F005
:103C5000A21BB30BE40BF50B661F771F881F991F80
:103C60001A9469F760957095809590959B01AC01C9
:103C7000BD01CF010895A29FB001B39FC001A39FD2
:103C8000700D811D1124911DB29F700D811D112495
:103C9000911D0895991B79E004C0991F961708F0AB
:103CA000961B881F7A95C9F780950895EE0FFF1F20
:103CB0000590F491E02D09940F931F93CF93DF9318
:103CC0008230910510F482E090E0E091D005F0910F
:103CD000D10520E030E0A0E0B0E0309719F140815C
:103CE00051810281138148175907C8F0841795073D
:103CF00069F4109731F012960C93129713961C9357
:103D000027C00093D0051093D10522C0211531059D
:103D100019F04217530718F49A01BD01EF01DF01B2
:103D2000F801DBCF21153105F9F0281B390B2430C0
:103D3000310580F48A819B816115710521F0FB01B9
:103D40009383828304C09093D1058093D005FE01B4
:103D5000329644C0FE01E20FF31F819391932250EB
:103D60003109398328833AC02091CE053091CF059F
:103D7000232B41F420911101309112013093CF0592
:103D80002093CE0520910F013091100121153105AE
:103D900041F42DB73EB74091130150911401241BFB
:103DA000350BE091CE05F091CF05E217F307A0F4B3
:103DB0002E1B3F0B2817390778F0AC014E5F5F4F81
:103DC0002417350748F04E0F5F1F5093CF054093DF
:103DD000CE058193919302C0E0E0F0E0CF01DF9146
:103DE000CF911F910F910895CF93DF93009709F41E
:103DF00081C0FC01329713821282A091D005B0914C
:103E0000D105109781F420813181820F931F209179
:103E1000CE053091CF052817390751F5F093CF051E
:103E2000E093CE0567C0ED0120E030E0CE17DF075C
:103E300040F44A815B819E0141155105F1F0EA0190
:103E4000F5CFD383C28340815181840F951FC8175A
:103E5000D90759F488819981840F951F029691831F
:103E600080838A819B81938382832115310529F484
:103E7000F093D105E093D0053DC0E901FB83EA83CF
:103E800049915991C40FD51FEC17FD0761F480814A
:103E90009181840F951F0296E9019983888382811D
:103EA00093819B838A83E0E0F0E012968D919C9150
:103EB0001397009719F0FD01DC01F7CF8D919C91CC
:103EC00011979D012E5F3F4F820F931F2091CE05CA
:103ED0003091CF052817390769F4309729F41092EB
:103EE000D1051092D00502C013821282B093CF0583
:103EF000A093CE05DF91CF91089581E090E0F894F2
:103F00000C94911FFB01DC014150504048F001909E
:103F10000D920020C9F701C01D9241505040E0F7BA
:063F20000895F894FFCFA4
:103F260000E1000000000000FF1300FFFFFFFF009C
:103F360000D205800000C180810000000000000062
:103F46003F0AAD09D7098B0A080AE609FA090000F3
:103F56000000B70A260BAC0BCD0AD80AD40BB00B5F
:103F660000000000541027108410FB0F1F100B10C8
:103F7600FC0F4D617820736572766F7320617474DF
:103F8600616368656400556E6B6E6F776E2070694D
:103F96006E206D6F6465004932433A20546F6F207E
:103FA6006D616E79206279746573207265636569E7
:103FB600766564004932433A20546F6F2066657710
:103FC600206279746573207265636569766564003D
:103FD60031302D6269742061646472657373696E31
:103FE60067206E6F7420737570706F7274656400ED
:103FF600746F6F206D616E79207175657269657376
:1040060000433A5C55736572735C6D61736F6E77CE
:104016005C4465736B746F705C5374616E6461723B
:10402600644669726D6174615C5374616E64617239
:0E403600644669726D6174612E696E6F0000E0
:00000001FF
